:020000040800F2
:1000000000000220DD6E00082D6F00082D6F000833
:100010002D6F00082D6F00082D6F000800000000F4
:100020000000000000000000000000002D6F00082C
:100030002D6F0008000000002D6F00085903000814
:100040002D6F00082D6F00082D6F00082D6F000820
:100050002D6F00082D6F00082D6F00082D6F000810
:100060002D6F00082D6F00082D6F00082D6F000800
:100070002D6F00082D6F00082D6F00082D6F0008F0
:100080002D6F00082D6F00082D6F00082D6F0008E0
:100090002D6F00082D6F00082D6F00082D6F0008D0
:1000A0002D6F00082D6F00082D6F00082D6F0008C0
:1000B0002D6F00082D6F00082D6F00082D6F0008B0
:1000C0002D6F00082D6F00082D6F00082D6F0008A0
:1000D0002D6F00082D6F00082D6F00082D6F000890
:1000E0002D6F00082D6F00082D6F00082D6F000880
:1000F0002D6F00082D6F00082D6F00082D6F000870
:100100002D6F0008111200082D6F00082D6F0008D8
:100110002D6F00082D6F00082D6F00082D6F00084F
:100120002D6F00082D6F00082D6F0008C512000804
:100130002D6F00082D6F00082D6F00082D6F00082F
:100140002D6F00082D6F00082D6F00082D6F00081F
:100150002D6F00082D6F00082D6F00082D6F00080F
:100160002D6F00082D6F00082D6F00082D6F0008FF
:100170002D6F00082D6F00082D6F00082D6F0008EF
:080180002D6F00082D6F00082F
:1001880010B5054C237833B9044B13B10448AFF3C9
:1001980000800123237010BDDC0100200000000056
:1001A800B475000808B5034B1BB103490348AFF306
:1001B800008008BD00000000E0010020B4750008C0
:1001C80010F8012B11F8013B012A28BF9A42F7D0F9
:1001D800D01A7047034613F8012B002AFBD1181ACE
:1001E8000138704710B4094B094C0A4AA04294BF21
:1001F8001846104611F0005F21F0F02121F082111D
:1002080014BFC16081605DF8044B70470060024014
:100218000F6402400064024000222DE9F0471346B3
:10022800D1F800E001274FF0030C04E00133102B54
:1002380002F1020229D007FA03F434EA0E05F5D1D7
:10024800D0F800800E790CFA02F5ED4308EA0508AB
:10025800C0F80080D0F8009006FA02FA013E4AEA97
:100268000909012E0CFA02F8C0F800900FD9C568E8
:10027800CC7925EA0805C560C568944001332C434C
:10028800102BC46002F10202D5D1BDE8F087866860
:1002980091F805903540856086688D7909FA02F9EC
:1002A80049EA06068660466826EA04044460466809
:1002B80005FA03F4A4B234434460D8E729B9054ADF
:1002C800136B23EA000010637047024B1A6B10434C
:1002D8001863704700380240034B5B6B034214BF3E
:1002E80001200020704700BF002C0140014B98639B
:1002F800704700BF002C0140F0B44A880F888D88F1
:10030800CC880B894E893A432A4322438D89CC896C
:10031800098A1A43324303882A43224303F4415388
:1003280013439BB20380838B23F400631B041B0CD1
:100338008383F0BC01827047002307220282038076
:1003480043808380C380038143818381C381704755
:100358001749184AF8B50B6801330B60136813B1D5
:100368001368013B1360144EAFF30080317889B1F4
:100378000024374606EB84056B683BB11A7B2AB12B
:100388009A68501E12B1986028B139780134E4B2E5
:100398008C42EFD3F8BD1A69586990476B6893E8A7
:1003A800060099603978002AF0D11A73EEE700BF89
:1003B8001402002018020020F80100200E4B0F4AFA
:1003C8001B680F490F48F0B5A2FB03620E4D0F4F93
:1003D8000F4C9209013A9B094A60A5FB03534FF061
:1003E800F00E00260725012287F823E09B0A8E607D
:1003F8000D6002702360F0BD70010020D34D6210C3
:1004080010E000E0100200201791650200ED00E006
:1004180078020020012070470120704701207047B2
:100428000120704701207047012070470120704764
:100438000120704701207047012070470120704754
:100448000120704701207047012070470120704744
:1004580000EB8000034B53F8203003B11847042009
:10046800704700BF00000020044B00EB800003EB46
:1004780080035B6803B11847042070470000002020
:100488000BB90420704730B40D461146074A00EBFB
:10049800800402EB8404246924B11A4628462346C2
:1004A80030BC1847042030BC704700BF0000002053
:1004B8000BB90420704730B40D461146074A00EBCB
:1004C800800402EB8404E46824B11A4628462346D3
:1004D80030BC1847042030BC704700BF0000002023
:1004E800054B00EB800003EB800308469B680BB1CB
:1004F8001146184704207047000000200048704744
:100508000000FC42F8B5324B324EC82232601D461C
:100518001F464FF0FF0E1A88540604D40020F8BD79
:100528002A89140606D51A899207F9D11A899207D9
:10053800F9D0F5E7A7F80CE01A89254C9207FBD00B
:100548002A891206F8D4BA89D2B2FF2A04D13268AD
:10055800002AE0D10020F8BDFE2ADFD10B46FF2299
:100568000146204604F0FAFD23885F0605D4184AA0
:1005780013885F0616D40120F8BD22462389144942
:100588009E07FBD013891D06F8D4FF230A468B81EA
:10059800084613890E499C07FBD003891B06F8D42B
:1005A8008B89E4E71046138909499E07FBD0038924
:1005B8001D06F8D4FF230A468B810846138904498F
:1005C8009C07FBD003891B06F8D48B890120F8BD52
:1005D8000038004018020020324B334A202130B442
:1005E800598313885D0647D42F4B30484FF4FA726D
:1005F800026019461C46FF2501E00268B2B11A885C
:100608005206FAD51A899207FCD00A891206F9D43B
:10061800A5811A899207FCD00A891206F9D4A28901
:10062800D2B2FF2AE9D1012030BC70471D4B1E4AC7
:1006380020211983138803F040039BB213B918468D
:1006480030BC70471046138917499D07FBD00389B2
:100658001C06F8D4FF230A468B81084613891249E1
:100668009B07FBD0038903F080039BB2002BF5D1D5
:1006780018468A8930BC7047104613890A499C0776
:10068800FBD003891B06F8D4FF230A468B81084652
:10069800138905499D07FBD003891C06F8D48B896B
:1006A800A2E700BF00040240003800401802002002
:1006B800F8B54D4B4D4E4FF4FA7232601D461F4649
:1006C8004FF0FF0E02E03268002A2CD01A88540638
:1006D800F9D51A899207FCD02A891406F9D4A7F803
:1006E8000CE01A89404C9207FBD02A891206F8D4EC
:1006F800BA89D2B2FF2AE6D123885B0617D4FD292E
:1007080013D0394C01464FF40072204604F00EFD18
:1007180023885B0652D4344A13885B0639D4324A9C
:1007280013885B0619D40020F8BD0120F8BD2246C5
:1007380023892D4D9E07FBD013891B06F8D48BB255
:100748002A46AB811389284C9F07FBD02B891E06AC
:10075800F8D4FD29A389D4D1E7E7104613892249A3
:100768009F07FBD003891E06F8D4FF230A468B8116
:10077800084613891C499D07FBD003891C06F8D439
:10078800888900F01F00A0F10500B0FA80F0400948
:10079800F8BD1046138914499F07FBD003891E062C
:1007A800F8D4FF230A468B81084613890E499D0712
:1007B800FBD003891C06F8D48B89B0E72246204673
:1007C800138909499F07FBD003891E06F8D4FF2324
:1007D8000A468B810846138903499D07FBD0038984
:1007E8001C06F8D48B8996E70038004018020020D0
:1007F80070B5060604460D4600F126810C2C0BD078
:100808008F4B904A202119831388590631D4FFF75A
:10081800E3FE08B9FF2070BD8A4A1388580600F124
:100828009280884A1388590600F1A780854A138860
:10083800590600F1BB80834A1388590600F1D0801D
:10084800804A13885B0600F1E5807E4B1B884CB319
:10085800082C5AD15A0600F101817A4B0A2419460C
:100868001D46FF26188800F0400080B2002834D1C9
:1008780070BD1046138973499B07FBD003891E0678
:10088800F8D4FF230A468B81084613896D499B07D4
:10089800FBD003891E06F8D48B89FFF79DFE00283C
:1008A800B8D0B9E75B06D8D59525664A10461389AE
:1008B80064499E07FBD003891B06F8D40A468D813C
:1008C800084613895F499E07FBD003891D06F8D4A3
:1008D8008B891DE00A89100606D51A899207F9D175
:1008E8001A899207F9D0F5E7AE811A899207FCD0E8
:1008F8000A891006F9D4AA8992B2D0B21206B7D5DD
:10090800621E12F0FF04ADD170BD5B0600F1A88035
:100918000C2CA2D14B4A138859069ED51046138930
:1009280048499B07FBD003891E06F8D4FF230A46D3
:100938008B810846138943499D07FBD003891C0610
:10094800F8D48B8989E7104613893E499B07FBD069
:1009580003891E06F8D444F040030A468B810846F2
:10096800138938499B07FBD003891E06F8D4354AFA
:100978008B89138859067FF559AF10461389314979
:100988009B07FBD003891E06F8D42B0E0A468B81E1
:10099800084613892B499B07FBD003891E06F8D408
:1009A800284A8B89138859067FF545AF1046138965
:1009B80024499B07FBD003891E06F8D4C5F30743D7
:1009C8000A468B81084613891E499B07FBD0038979
:1009D8001E06F8D41B4A8B89138859067FF530AF59
:1009E8001046138917499B07FBD003891E06F8D4C4
:1009F800C5F307230A468B810846138911499B07CB
:100A0800FBD003891E06F8D40E4A8B8913885B062F
:100A18007FF51BAF104613890A499E07FBD003894F
:100A28001B06F8D4EDB20A468D810846138905499C
:100A38009E07FBD003891D06F8D48B8905E700BF04
:100A4800000402400038004000213720FFF7D0FEA4
:100A580001283FF60DAF04F07F04CFE6872524E791
:100A6800012522E7F0B58F4D85B0002301240193BD
:100A7800284622462021009404F08AF9FFF79EFCBC
:100A88002146894804F0F6FC202388492B830B680B
:100A98000393EFF30583002B41D0854A0A2113689D
:100AA800DB03FCD50139FAD17F4B0A24FF2519460F
:100AB800184603E0621E12F0FF0414D01A88570685
:100AC800F8D51A899607FCD00A891206F9D48581C7
:100AD8001A899707FCD00A891606F9D48289621EFA
:100AE80012F0FF04EAD121462046FFF781FE0128D3
:100AF800054662D06F486B4A6B4B00242021047076
:100B080011831B885B063BD46B4B01221A701A7841
:100B180002F0FB021A701878C0B205B0F0BD0B687D
:100B2800039A9B1A092BBFD80B68039A9B1A092BA7
:100B3800F5D9B9E72146A920FFF75AFE01288DBF4C
:100B48002C460224A925254602E0FFF751FE20B1D4
:100B5800336800212846002BF7D13368002BC9D110
:100B68004FF400711020FFF743FE0028C2D151490D
:100B78004C4A0C704C4B202111831B885A0616D501
:100B8800494A1046138948499B07FBD003891F0629
:100B9800F8D4FF230A468B810846138942499E07E9
:100BA800FBD003891D06F8D48B89002CACD0424BAE
:100BB8001A7802F0FE021A70A9E7404E4FF47A73D1
:100BC8004FF4D57108203360FFF712FE0128B1D128
:100BD800354B02AD19461F46284603AC4FF0FF0EB1
:100BE8001A8802F0400292B28AB900F8012B8442B6
:100BF800F6D19DF80A30012B7FF47CAF9DF80B30BD
:100C0800AA2B7FF477AF17E00A89120606D51A894E
:100C18009207F9D11A899207F9D0F5E7A7F80CE0FD
:100C28001A899207FCD00A891206F9D4BA89D2B275
:100C3800DBE7FFF7DDFD28B133684FF08041A920DD
:100C4800002BF6D13368002B3FF454AF00213A2033
:100C5800FFF7CEFD00287FF44DAF134AFF2610465C
:100C68001146138803F040039BB25BB905F8013BBA
:100C7800A542F6D19DF8083013F0400F14BF0C249C
:100C8800042474E713899B07FCD003891F06F9D451
:100C98008E8113899B07FCD003891F06F9D48B89A1
:100CA800DBB2E3E7000402400038004014020020F1
:100CB80010E000E01C020020B40000201802002010
:100CC800034B1A7802F0FB021A701878704700BFBD
:100CD800B40000202DE9F0475A4B1B78DC0703D5F8
:100CE80003263046BDE8F087574B1B788146180726
:100CF80058BF4902012A164655D01220FFF778FD41
:100D080098B9524CDFF84CA12546A046C823CAF82A
:100D18000030FF22238859062BD4003618BF01263D
:100D280000210C20FFF764FD02E0003618BF012601
:100D3800474B464A2021198313885B06D1D51046B4
:100D4800138942499F07FBD003891D06F8D4FF2366
:100D58000A468B81084613893C499C07FBD00389C6
:100D68001B06F8D48B893046BDE8F0872B891F060F
:100D780006D523899B07F9D123899B07F9D0F5E785
:100D8800A8F80C202389314F9807FBD02B89190626
:100D9800F8D4B8F80C30DBB2FF2B12D1DAF80030F7
:100DA800002BB7D1B9E71120FFF722FD0028BFD1EA
:100DB80048464FF40071FFF7A5FBB0FA80F67609B4
:100DC800B6E7FE2BA9D14FF40073FF2249463846F7
:100DD80004F0C4F93B885B060AD423885B0611D467
:100DE800013E09F5007991D19AE72B89180610D5AB
:100DF80023899F07F9D123899F07F9D0F5E72B8924
:100E0800180612D523899F07F9D123899F07F9D09E
:100E1800F5E7FF23A8F80C3023899907FCD02B8924
:100E28001A06F9D4B8F80C30D7E7FF23A8F80C3025
:100E380023899907FCD02B891A06F9D4B8F80C3005
:100E4800CEE700BFB40000201C020020003800409C
:100E58000004024018020020F8B5304B1E78F50750
:100E680001D50320F8BD1B785C0701D50220F8BD29
:100E78002B4B1B7814461A070F4658BF4F02012CFC
:100E880005463DD013F0060F35D139461920FFF736
:100E9800AFFC00B3201C18BF0120224B224920229E
:100EA8001A830B885B06E2D50A460B891E4C9F07FE
:100EB800FBD013891E06F8D4FF232146A3812246BE
:100EC8000B89194C9D07FBD013891B06F8D4A389FD
:100ED800F8BD013C07D02846FC21FFF7E9FB05F5E2
:100EE80000750028F5D1FD210020FFF7E1FB00285F
:100EF800D0D10120D1E721469720FFF779FCC4E73C
:100F080039461820FFF774FC0028F2D12846FE2144
:100F1800FFF7CEFBB0FA80F04009BEE7B40000202E
:100F28001C0200200004024000380040B14B1B782E
:100F3800DA0701D503207047F0B50C4685B00428C0
:100F480000F29E80DFE800F042509C0B0300AA4D9F
:100F58002B7813F0060F40F0BD8001203BE0A64D32
:100F68002B7803F0040303F0FF01002B00F08A80C4
:100F780000218D20FFF73CFC0028EED19F4A138802
:100F88005B0600F1008110216846FFF7BBFA0028D4
:100F9800E3D09A4B302118461D46FF2604E04A1E2E
:100FA80012F0FF0100F0E7801A885706F7D51A8972
:100FB8009207FCD002891706F9D4AE811A899207E4
:100FC800FCD002891706F9D4AA89E8E7FFF704FBE1
:100FD800B0FA80F040098A4B884A20211983138887
:100FE8005B0637D405B0F0BD00210920FFF700FCEF
:100FF80005460028B1D110216846FFF783FA00287A
:10100800ABD09DF800309B09012B00F0D1809DF8F2
:1010180005109DF80A709DF809209DF807009DF8B5
:1010280006309DF8086001F00F0101EBD71152005E
:101038000231800002F006029B020A4403F4406376
:1010480000EB9611D2B20B44093A0133934028467B
:101058002360C0E71446138968499F07FBD023899A
:101068001E06F8D4FF230A468B810C461389634970
:101078009D07FBD023891B06F8D48B8905B0F0BDEA
:101088000420A8E70920FFF7B3FB064600287FF4F1
:1010980064AF10216846FFF735FA00283FF45DAFCA
:1010A8002B7803F0020303F0FF00002B00F091807F
:1010B8009DF80A309DF80B109DF80D205B0003F099
:1010C8007E0303EBD11392090133013A9340304672
:1010D800236080E769460B20FFF728FF00287FF48C
:1010E8003CAF9DF800309B0904D19DF80A305E069C
:1010F8007FF533AF12CC2B78180758BF49024FF051
:10110800200058BF6402FFF773FB00287FF425AF67
:1011180021462120FFF76CFB014600287FF41DAF14
:101128002620FFF765FB00287FF417AF334B354DBA
:1011380047F230522A601C461946FF2603E02A6807
:10114800002A3FF40AAF1A885206F8D51A89970779
:10115800FCD022891006F9D48E811A899207FCD016
:10116800208900F0800080B20028F6D18A89D2B2A6
:10117800FF2AE4D12FE79DF80A2010231209934093
:101188000846236027E7104613891C499F07FBD0B0
:1011980003891E06F8D4FF230A468B810846138963
:1011A80016499D07FBD003891B06F8D48B89EAE60C
:1011B8009DF807309DF808109DF809201B0403F4DA
:1011C8007C13013302EB012213449B02284623605F
:1011D80001E79DF80B609DF80A30F50005F0180549
:1011E800C3F3840205EB5615531C05FB0333236038
:1011F800F1E600BFB40000201C02002000380040C7
:10120800000402401802002010B54FF48070FFF768
:1012180063F828BB0220FFF75FF890B90820FFF7B2
:101228005BF878BB2020FFF757F820BB1020FFF7AA
:1012380053F870BB4FF40070FFF74EF880BB1C4C9E
:1012480005E002201A4CFFF751F802232370194ACF
:10125800D36B23F4434323F03A03D363237810BDBD
:10126800134C00234FF480702370FFF73FF8124BA4
:1012780001221A60EBE720200D4CFFF737F8062310
:101288002370E4E708200A4CFFF730F804232370A2
:10129800DDE71020064CFFF729F805232370D6E771
:1012A8004FF40070024CFFF721F807232370CEE7B4
:1012B8001D020020002C014024020020064B1B6860
:1012C80013F0C05F00D17047044B054801224FF06E
:1012D800C2511A60FEF786BF006402402002002057
:1012E80058640240F0B5D0F800E0BEF1000F33D0EA
:1012F8009EF800101F2909D93A2939D0724601E011
:101308003A2B06D012F8013F1F2BF9D80027384690
:10131800F0BDA1F13007092F03D80EF101039A425D
:1013280021D0561CDFF850C000275CF8044F7146E6
:1013380001E093420DD111F8013B14F8012BA3F100
:101348006105192D9CBF203BDBB2002AF1D1B142C7
:1013580006D00137092FE8D14FF0FF373846F0BDE6
:1013680001603846F0BD092FF6D001320260CEE7A1
:101378000EF10106D6E700BF3C76000803692DE9A7
:10138800F04101F10904002B34D046690022751E92
:101398004FF02E0C14E0092AA3F1410756D0192F5B
:1013A8000AD8082A96F80CE08CBF1027082717EAF5
:1013B8000E0F1CBF2033DBB2237001340B2A0BD075
:1013C80015F8013F202B02F10102F7D0052BE2D1DD
:1013D800092A45D0E523EFE7F37A0B72F3690B602E
:1013E800727E337E43EA02238B80F27DB37D43EA2B
:1013F8000223CB80002323708E692EB30269F2B1D9
:10140800CA69E2B1048C4FF6FF72944217D0C769DB
:101418003888A0B10D461C4606F1FF380AE0EB6992
:10142800013BA34204F1010409D908F8010F37F878
:10143800140028B1002103F06FFC0028EFD100242C
:1014480000233355BDE8F081BDE8F081192F84F8F9
:1014580000C004F10104AFD896F80CE01027A6E705
:1014680084F800C00134B5E7F8B5C56A00F1300763
:1014780004462A46407839460123FFF719F8A8B9E7
:10148800236AA2692071EB1A934201D30020F8BDA8
:10149800E678012E4FF001033946F7D9A269607842
:1014A80015442A46FFF704F8013EF2E70120F8BD8B
:1014B8002DE9F041C56A8D4235D0037904460E46C0
:1014C80000F130087BB93246414601236078FEF7C7
:1014D800D7FF002818BF4FF0FF36E66214BF01207F
:1014E8000020BDE8F081414601232A464078FEF7F6
:1014F800DFFFA8B9226AA3692071AA1A9A42E2D228
:10150800E778012F01D8DEE7A36960781D44013F21
:101518002A4601234146FEF7CBFF012FF4D1D2E73B
:101528000120BDE8F0810020BDE8F081F0B5074654
:10153800002385B008463B601446FFF7D3FE061E1D
:1015480016DBB14B53F82650ADB13D602B7823B173
:101558006878FEF789FFC70710D5F0B200236870D6
:101568002B70FEF775FFC60711D5032005B0F0BD37
:101578000B2005B0F0BD0C2005B0F0BD3CB300F069
:10158800040303F0FF00002BF0D00A20EEE70CB1B3
:101598004107FAD400224FF0FF3405F130062A71D2
:1015A800EC62314601236878FEF76AFF60B995F866
:1015B8002F2295F82E32E86243EA02234AF6552292
:1015C800934206D00D20D1E7EC620120CEE72046F9
:1015D800CCE7D5F866208D4B22F07F41994200F088
:1015E8001181D5F8821021F07F41994200F00A81DB
:1015F80095F8F201002800F04581D5F8F64195F8F4
:1016080002320BB1D5F8063295F81212019309B1DE
:10161800D5F8161295F8223202910BB1D5F8263278
:101628000393DCB9019C64BB029C002C39D1039C58
:10163800002CC7D04FF0FF370023BC422B71EF625C
:1016480000F005813146012322466878FEF718FF2D
:10165800002800F0FB80EF62012087E74FF0FF379A
:101668000023BC422B71EF6200F01C81012322464B
:1016780031466878FEF704FF002800F00581EF6224
:10168800D0E74FF0FF370023BC422B71EF621CD02C
:101698000123224631466878FEF7F2FEA0B1EF62D8
:1016A800C2E74FF0FF370023BC422B71EF6200F016
:1016B800B2800123224631466878FEF7E1FE002811
:1016C80000F0A880EF62B2E7EC6295F82F1295F867
:1016D8002E324AF6552243EA01239342A4D1D5F883
:1016E80066304A4A23F07F43934205D0D5F88230CA
:1016F80023F07F43934297D195F83C2095F83B30EF
:1017080043EA0223B3F5007F7FF45CAF95F84710F6
:1017180095F8463095F84070EF7053EA012318BFEA
:10172800194607F1FF3308BF696DA961012B3FF620
:1017380049AF95F83D30AB70002B3FF443AF5A1ECC
:101748001A427FF43FAF95F8412095F8426042EA8B
:10175800062632072E817FF435AF95F8440095F8B8
:10176800432095F83FE052EA002295F83E0008BF72
:101778002A6D50EA0E203FF425AF01FB07F700EB76
:10178800161EBE447245FFF41DAFCEEB0202B2FB3B
:10179800F3F3002B3FF416AF40F6F572934240F294
:1017A800D1804FF6F572934240F2B0800233204464
:1017B8000EEB04026B612862AA62EC61002E7FF4D2
:1017C80001AF9B0003F2FF13EA6D6A62B1EB532F7E
:1017D800FFF4F8AE95F8611095F8603043EA0123FC
:1017E8004FF0FF328021012B2A61EA60697167D0CE
:1017F8000323074A2B70138801339BB21380EB80B5
:101808000020B3E6044677E72C0200204641540046
:1018180028020020EC6295F82F1295F82E324AF62D
:10182800552243EA012393427FF401AFD5F866308D
:10183800554A23F07F4393423FF45EAFD5F8823098
:1018480023F07F4393427FF4F2AE55E7EC6295F8BC
:101858002F1295F82E324AF6552243EA0123934275
:101868007FF4B0AED5F86630474A23F07F43934201
:101878003FF442AFD5F8823023F07F4393427FF4A0
:10188800A1AE39E70446BAE695F82F2295F82E322C
:10189800EC6243EA02234AF6552293427FF4C2AE31
:1018A800D5F86620384922F07F428A423FF424AFB7
:1018B800D5F8823023F07F438B427FF4B3AE1BE729
:1018C800611C2846FFF7F4FD002891D195F82F22D6
:1018D80095F82E326E7143EA02234AF65522934256
:1018E80086D12A4B2A6B9A4282D103F1FF5303F522
:1018F8000053D5F8142220339A427FF479AFD5F8F3
:101908001822D5F81C322A61EB6071E702332044B3
:101918000EEB04026B612862AA62EC61002E3FF4B0
:1019280051AE5B0003F2FF133844B1EB532F6862EA
:10193800FFF448AE4FF0FF3380222B61EB606A71F1
:10194800022356E7023320440EEB04026B6128623F
:10195800AA62EC61002E3FF435AE03F0010202F2F8
:10196800FF1203EB430302EB53033844B1EB532F4D
:101978006862FFF427AE4FF0FF3380222B61EB60E3
:101988006A71012335E700BF464154005252614154
:10199800F8B5037904465BB92378032B2AD00022D3
:1019A80060781146FEF79CFD003018BF0120F8BD95
:1019B800C56A407804F130072A4639460123FEF704
:1019C80077FDA8B9226AA3692071AA1A9A42E3D2BC
:1019D800E678012E01D8DFE7A36960781D44013E4F
:1019E8002A4601233946FEF763FD012EF4D1D3E7D9
:1019F8000120F8BD6579012DD1D104F130073846B1
:101A08004FF40072002105F030FB2369E668E269B3
:101A180084F81832180E4FEA232C4FEA134E394631
:101A28002B46370C84F81B025525AA20013284F86E
:101A380019C284F81AE24FEA262C4FEA166E84F887
:101A48001C6284F81E726126522784F82E5284F88C
:101A58002F024125722084F8140284F8150284F8B4
:101A68001DC284F81FE2E26284F8307084F8317095
:101A780084F8326084F8176284F8335084F8165278
:101A88006078FEF715FD0023637188E72DE9F84FAC
:101A98000378022B04460D46174600F0A780032B57
:101AA80072D0012B02D00220BDE8F88F026AD0F86C
:101AB8002C9001EB510802EB582ACA4500F03F81EF
:101AC800027900F13006002A40F0F98031460123FE
:101AD80052466078FEF7D4FC002840F01281226A52
:101AE800C4F82CA0D14608F1010615F00105C8F389
:101AF8000808A04402EB562B00F0098198F8303012
:101B080003F00F0343EA07130122D34588F8303066
:101B1800227100F0168104F1300841460123524633
:101B28006078FEF7C5FC002840F0EE80226AA369C1
:101B38002071C2EB0A029A4212D294F803A0BAF1B9
:101B4800010F01D80CE0A369607899440AF1FF3AC3
:101B58004A4601234146FEF7ABFCBAF1010FF2D128
:101B6800414601235A466078FEF78AFC002840F077
:101B7800C880C4F82CB0C6F30803002D00F0D0804C
:101B8800C7F307172344D3E0036AD0F82CA003EB6C
:101B9800D118D0450FD0037900F13006002B6BD156
:101BA8003146012342466078FEF76AFC002840F07F
:101BB800A880C4F82C80AD0005F4FE7505F130024C
:101BC80022442544D3781B0603F070431F434FEA91
:101BD800272E3E0C390E012385F8307082F801E07B
:101BE8009670D17023710020BDE8F88F036AD0F891
:101BF8002CA003EB1128D0450DD0037900F1300655
:101C0800BBB93146012342466078FEF739FC00280B
:101C180077D1C4F82C806D0005F4FF7561193A126C
:101C2800012381F8307081F8312023710020BDE84C
:101C3800F88F3146012352464078FEF739FC0028D8
:101C480062D1226AA3692071C2EB0A029A42D8D2F1
:101C580094F80390B9F1010F01D8D2E7A36960782D
:101C68009A4409F1FF39524601233146FEF720FC18
:101C7800B9F1010FF2D1C4E7314601235246407849
:101C8800FEF716FC00283FD1226AA3692071C2EB37
:101C98000A029A4284D294F80390B9F1010F01D84C
:101CA8007EE7A36960789A4409F1FF395246012317
:101CB8003146FEF7FDFBB9F1010FF2D170E731466D
:101CC8004A464078FEF7F4FBF0B9226AA36920710E
:101CD800C2EB09029A42BFF4F9AE94F803B0BBF123
:101CE800010F01D8F2E6A369607899440BF1FF3B34
:101CF8004A4601233146FEF7DBFBBBF1010FF2D167
:101D0800E4E64FF0FF33E3620120BDE8F88F0123DA
:101D1800D34588F8307023717FF4FDAEC6F308030D
:101D28002344C7F3032793F8302022F00F02174308
:101D3800012283F8307022710020BDE8F88FD14667
:101D4800D1E6C6F308031BE72DE9F84F04460D4614
:101D580063699D4200F1300665D2012D07D92378C9
:101D6800022B00F08A80032B60D0012B02D00220C6
:101D7800BDE8F88F226AE76A05EB550902EB592896
:101D880047450FD02279002A40F0E38001234246DC
:101D980031466078FEF774FB002840F08A80226A9A
:101DA800C4F82C80C9F3080309F10109234402EBA4
:101DB8005927B84593F830B00CD02379002B40F060
:101DC800EA8001233A4631466078FEF759FB00283D
:101DD8006FD1E762C9F3080904EB0903E90793F82F
:101DE80030304BEA03274CBF3F09C7F30B07D7B185
:101DF800012FBCD0012DBAD963699D42B7D22946BB
:101E080000222046FFF742FE002858D123695A1CB9
:101E180005D06279013342F001022361627163697E
:101E28003D469D4299D30020BDE8F88F276AD4F833
:101E38002C9007EBD5174F450AD02379002B65D195
:101E480001233A4631466078FEF71AFB88BBE76201
:101E5800AB0003F4FE7303F130002044E1188278EC
:101E6800C378407891F83070120442EA036242EA7B
:101E780000231F4327F07047B9E7276AD4F82C904E
:101E880007EB15274F4509D02379D3B901233A46E3
:101E980031466078FEF7F4FA58B9E7626B0003F44C
:101EA800FF73E21892F8317092F8303043EA07274E
:101EB8009DE74FF0FF33E3620120BDE8F88FBDE8EE
:101EC800F88F01234A4631466078FEF7F1FAD0B917
:101ED800226AA3692071C2EB09029A42D6D294F809
:101EE8000380B8F1010F01D8D0E7A369607899445D
:101EF80008F1FF384A4601233146FEF7D9FAB8F10E
:101F0800010FF2D1C2E70120BDE8F88F01234A464C
:101F180031466078FEF7CCFA0028F4D1226AA3692A
:101F28002071C2EB09029A428AD294F80380B8F170
:101F3800010F01D884E7A3696078994408F1FF3854
:101F48004A4601233146FEF7B3FAB8F1010FF2D140
:101F580076E73A4631466078FEF7AAFA0028D2D1E9
:101F6800226AA3692071BA1A9A42BFF40FAF94F893
:101F780003A0BAF1010F01D808E7A36960781F44EC
:101F88000AF1FF3A3A4601233146FEF791FABAF1CF
:101F9800010FF2D1FAE60123424631466078FEF796
:101FA80087FA0028AFD1226AA3692071C2EB080220
:101FB8009A42BFF406AF94F803A0BAF1010F01D812
:101FC800FFE6A369607898440AF1FF3A4246012384
:101FD8003146FEF76DFABAF1010FF2D1F1E600BF12
:101FE8002DE9F84F0378022B04460D4678D0032BD1
:101FF8004AD0012B02D00120BDE8F88F026AC76AD7
:1020080001EB510902EB5928B84500F0F980027933
:1020180000F13006002A40F0C980314601234246CB
:102028006078FEF72DFA002840F0E580226AC4F8AF
:102038002C804746C9F3080309F10109234402EB40
:10204800592BC34593F830A010D0237904F13006FA
:10205800002B40F0D780314601235A466078FEF7BE
:102068000FFA002840F0C780C4F82CB0C9F308095B
:102078004C4494F830304AEA0320EB074CBF00097F
:10208800C0F30B00BDE8F88F076AD0F82C9007EB77
:10209800D1174F450ED0037900F13006002B62D1DD
:1020A800314601233A466078FEF7EAF9002840F005
:1020B800A280E762AD0005F4FE7505F13003234404
:1020C80025449A78D978587895F83030120442EA3D
:1020D800016242EA0020184320F07040BDE8F88F02
:1020E800076AD0F82C9007EB11274F450CD00379DD
:1020F80000F13006A3B9314601233A466078FEF76D
:10210800BFF9002877D1E7626D0005F4FF75631900
:1021180093F8310093F8303043EA0020BDE8F88F97
:10212800314601234A464078FEF7C2F900285ED1BD
:10213800226AA3692071C2EB09029A42DBD294F8A1
:102148000380B8F1010F01D8D5E7A36960789944F5
:1021580008F1FF384A4601233146FEF7A9F9B8F1DC
:10216800010FF2D1C7E7314601234A464078FEF70E
:102178009FF900283BD1226AA3692071C2EB0902AA
:102188009A428DD294F80380B8F1010F01D887E7FD
:10219800A3696078994408F1FF384A46012331461B
:1021A800FEF786F9B8F1010FF2D179E731463A46E0
:1021B8004078FEF77DF9D0B9226AA3692071BA1A6E
:1021C8009A42BFF42AAF94F803A0BAF1010F01D8DC
:1021D80023E7A36960781F440AF1FF3A3A460123CE
:1021E8003146FEF765F9BAF1010FF2D115E74FF064
:1021F800FF30BDE8F88F4FF0FF30E062BDE8F88FA0
:10220800474617E73146012342466078FEF750F902
:102218000028ECD1226AA3692071C2EB08029A4215
:10222800BFF419AF94F80380B8F1010F01D812E791
:10223800A36960781F4408F1FF383A460123314604
:10224800FEF736F9B8F1010FF2D104E770B50D4683
:102258008168C580012904D0044600684369994211
:1022680001D3022070BDC1B90278032A11D00389B5
:102278009D42F6D2436AE160002BF2D005F00F02CE
:10228800303000EB421003EB15156061256100202A
:1022980070BD426A002AEAD0114686783601B542F6
:1022A80017D3AD1B0FE0FFF79BFE431C0146A5EBC0
:1022B800060217D00128D4D9206843698B42D0D9A7
:1022C800AE4206D815460129CBD99942EBD3022054
:1022D80070BD023B8E1E9E4206D28278836A06FB40
:1022E8000233C8E7012070BDE160BAE72DE9F04F7D
:1022F80083B00446009100296AD1C6684369002E5C
:1023080076D10126354601359D4204F1300759D36F
:10231800012E40F22A81022B56D902252378022B5E
:1023280000F09380032B67D0012B4DD1226AD4F89B
:102338002CB005EB550A02EB5A28C3450FD0227979
:10234800002A40F0CB800123424639466078FEF7E8
:1023580097F8002840F09780226AC4F82C80CAF3C6
:10236800080323440AF1010A02EB5A2993F8303092
:102378000193C8450DD02379002B40F0F880012344
:102388004A4639466078FEF77BF800287BD1C4F8C6
:102398002C90CAF308032344019A93F83030E907D4
:1023A80042EA03234CBF1B09C3F30B03002B00F0C5
:1023B8000281012B08D0AE4200F0D7806369013555
:1023C8009D42A5D2012DA9D8012003B0BDE8F08F08
:1023D8000129F9D943699942F6D2FFF701FE01288C
:1023E800F2D9451C52D063698342EED8009E89E732
:1023F8009E4228BF012685E7236AD4F82CA003EB68
:10240800D518D0450CD02379002B40F08A800123C1
:10241800424639466078FEF733F8A0BBC4F82C80F2
:10242800AB0003F4FE7303F130002044E218817816
:10243800C378407892F83020090441EA036343EAFC
:102448000023134323F07043B0E7236AD4F82CA089
:1024580003EB1528D0450AD02379E3B90123424676
:1024680039466078FEF70CF868B9C4F82C806B0020
:1024780003F4FF73E218134692F8312093F83030D2
:1024880043EA022392E74FF0FF33E3624FF0FF3055
:1024980003B0BDE8F08F0123524639466078FEF755
:1024A80007F80028F2D1226AA3692071C2EB0A0258
:1024B8009A42D3D294F80390B9F1010F01D8CDE72D
:1024C800A36960789A4409F1FF39524601233946D5
:1024D800FDF7EEFFB9F1010FF2D1BFE75A463946D1
:1024E8006078FDF7E5FF0028D0D1226AA369207142
:1024F800C2EB0B029A42BFF426AF94F80390B9F1ED
:10250800010F01D81FE7A36960789B4409F1FF39DF
:102518005A4601233946FDF7CBFFB9F1010FF2D135
:1025280011E70123524639466078FDF7C1FF0028BC
:10253800ACD1226AA3692071C2EB0A029A42BFF4A5
:1025480066AF94F80390B9F1010F01D85FE7A3696A
:1025580060789A4409F1FF39524601233946FDF75C
:10256800A7FFB9F1010FF2D151E700202DE70123B0
:10257800424639466078FDF79BFF002886D1226ADB
:10258800A3692071C2EB08029A42BFF4F8AE94F82E
:1025980003B0BBF1010F01D8F1E6A3696078984454
:1025A8000BF1FF3B424601233946FDF781FFBBF1A2
:1025B800010FF2D1E3E66369AB427FF605AF6FF036
:1025C800704229462046FFF761FAE8B9009B6BB1D3
:1025D800012B1A467FF6F8AE63699A42BFF4F4AE4F
:1025E800114620462A46FFF751FA68B92369E56083
:1025F8005A1C07D06279013B42F001022361284648
:102608006271E2E62846E0E601283FF43FAFDBE6E8
:102618002DE9F04F804689468168C068C1EB000A01
:10262800924528BF924685B0BAF1000F6FD09B46FD
:1026380008F12403029308F128030393C1F3080463
:10264800002C40F08E80D8F800008578013D05EA1E
:10265800512515F0FF0500F0C780D8F8142041690E
:10266800023A02398A4280F0D0808178876A01FB79
:1026780002F3DE19019300F0C8805FEA5A242E4461
:1026880049D02A19914238BF4C1B4078234632461C
:102698004946FDF7F5FE002840F0D48098F806304A
:1026A800580625D5D8F818309A1B944220D9019994
:1026B800DB1B5B1B5B1A5B02191D039D49444B44E2
:1026C80008F12400AB4238BF88424FEA4222C0F0EA
:1026D800BF8043EA0001890740F0BA8008F1200270
:1026E80003F5007052F8041F43F8041B9842F9D10F
:1026F800D8F808106402DBF8003021442344BAEB10
:10270800040AC8F80810A144CBF8003096D100207C
:1027180005B0BDE8F08FD8F8182096421BD098F87D
:1027280006104B060FD5407802990123FDF7C0FE2D
:10273800002840F0878098F80620D8F8000022F09A
:10274800400288F806204078029901233246FDF7B6
:1027580097FE002876D1D8F80840C8F81860C4F366
:10276800080404F1200141440B1DC4F5007409F16B
:1027780004021D1D544528BF544649EA0300A945D3
:1027880038BF93422CBF0122002210F0030F02F041
:10279800010218BF0022651E002A3ED0092C3CD930
:1027A800221F92080132022D4FEA820633D94F4682
:1027B80000209646013051F8042F47F8042B86452F
:1027C800F8D8A6423344A5EB060509EB060208D063
:1027D800197811702DB159785170012D01D09B785D
:1027E8009370D8F8081086E709BBD8F81020012A9A
:1027F8000BD9541C26D0D8F80000C8F81420416919
:10280800023A02398A42FFF430AF022088F8070002
:1028180005B0BDE8F08F4A46DAE709F1FF3218192A
:1028280013F8011B02F8011F8342F9D1D9E7D8F840
:1028380014100129E9D942699142E6D2FFF7D0FB89
:102848000246D4E7012088F8070005B0BDE8F08FFC
:10285800531E4B4408F5097110F8012B03F8012F9A
:102868008142F9D144E700BFF8B5C4880134A3B266
:102878000BB90420F8BD0369002BFAD014F00F0639
:10288800054607D00368EC80303303EB46136B61D1
:102898000020F8BDC16801330361036859B19A7813
:1028A800013A12EA1412EED1012902D95A69914269
:1028B80005D30220F8BD1A899442DAD2E3E7184614
:1028C800FFF78EFB0128F4D9431C0FD02B685A69F7
:1028D8009042CED2023A871E9742E8603BBF997871
:1028E8009A6A002207FB01222A61CCE70120F8BD81
:1028F8002DE9F04F0D4683B000210746FFF7A6FCEF
:102908008346C0B1042810D0584603B0BDE8F08F04
:10291800E6627B691B78E52B35D0002B33D04FF06E
:10292800000AFD880135ABB2FBB94FF0070B5846DA
:1029380003B0BDE8F08F3C683E6901908246AB4623
:10294800E56AB542E5D0237904F1300913BB49465D
:10295800012332466078FDF793FD0028D8D04FF068
:10296800FF33E3624FF0010BCEE73E69002EDCD067
:1029780015F00F0830D03C68FD8004F1300303EBFC
:1029880048137B61DCE70AF1010ADA45C9D1DDF8B1
:1029980004B0B9E7494601232A466078FDF788FD67
:1029A8000028DFD1226AA3692071AA1A9A42CED2DE
:1029B80094F80380B8F1010F01D8C8E7A3696078DB
:1029C8001D4408F1FF382A4601234946FDF770FDEA
:1029D800B8F1010FF2D1BAE7F9683C6801363E61F7
:1029E80061B1A378013B13EA1513C5D1012902D9B6
:1029F8006369994208D34FF0020B85E723899D420A
:102A0800BAD34FF0070B92E72046FFF7E9FA0128FF
:102A18000646F0D9421CA5D03C68636998420CD29E
:102A2800A0F10209023B4B45FE6085BFA678A36A68
:102A3800002609FB06363E619EE72046F968FFF747
:102A480055FC064600283FF470AF0128D3D0431C3C
:102A580088D038680379002B32D14FF400723030B7
:102A6800002104F002FB3C686369A278023BA6F1EE
:102A78000209994536BFA36A002309FB0233E362C2
:102A8800D2B100222046144605E0C36A8278013399
:102A98009442C3620ED24FF0010303713868037980
:102AA8000134002BF1D0FEF7DFFC00287FF45AAF89
:102AB8003868EAE7224604469A1AE2626369B1E78F
:102AC800FEF7D2FC00287FF44DAF3868C5E700BF99
:102AD8002DE9F04F85B0FF234FF6FF7B04680769A7
:102AE800A0F820B0064601939946E56AAF4214D093
:102AF800237904F1300A002B40F0BE8051460123AF
:102B08003A466078FDF7BCFC30B14FF0FF33E36222
:102B1800012005B0BDE8F08FE762746922789AB1A8
:102B2800E52A07D0E37A03F03F011B0710D50F29E8
:102B380000F0C680A6F820B04FF0FF09F5880135EF
:102B4800ABB2002B40F08980042005B0BDE8F08FBF
:102B58000F2900F0B580B9F1000F49D1D10165788E
:102B6800A078E37894F804E0677941EA52010D44CB
:102B7800C5F3460141EAC51150FA81F0C0F3460198
:102B880041EAC01053FA80F3C3F3460040EAC31386
:102B98005EFA83FECEF3460343EACE1357FA83FE6A
:102BA800CEF34607A179E079237A657A47EACE170A
:102BB80051FA87F1C1F3460747EAC11150FA81F08B
:102BC800C0F3460141EAC01153FA81F3C3F3460149
:102BD80041EAC31355FA83F3C3F34601A07A41EAE5
:102BE800C31350FA83F30199DBB28B4200F0C9801A
:102BF800B369D97AC9079DD419788A429AD1597884
:102C08006278914296D1A1789A78914292D1E178EE
:102C1800DA7891428ED121791A7991428AD16179F3
:102C28005A79914286D1A1799A79914282D1E179F2
:102C3800DA7991427FF47EAF217A1A7A91427FF451
:102C480079AF617A5A7A91427FF474AFA27A9B7A0B
:102C58009A427FF46FAF00205BE73769002F3FF49B
:102C680073AF15F00F0844D03468F58004F13003D1
:102C780003EB4813736138E7514601232A4660780D
:102C8800FDF716FC00287FF443AF226AA369207180
:102C9800AA1A9A42BFF432AF94F80380B8F1010F30
:102CA80001D82BE7A36960781D4408F1FF382A464C
:102CB80001235146FDF7FCFBB8F1010FF2D11DE7E6
:102CC800F569002D3FF43AAF57060DD5617BF388BF
:102CD8000191338402F0BF0994F80DA0019B9A4535
:102CE8001DD04FF0FF0929E74A45F5D04FF0FF09FD
:102CF80024E7F16834680137376159B1A378013B9B
:102D080013EA1513B1D1012902D9636999424ED347
:102D18000220FEE623899D42BFF416AFA5E723787B
:102D2800DFF8CC80CDF80C9023F04003013B03EB97
:102D3800430103EB810108F10D070120CDF804A040
:102D48008946029603E05B454AD147451BD018F8EF
:102D5800013BE218E35C527843EA02230028F2D0F0
:102D6800184601F0FDFFB9F1FE0F824609F1010690
:102D780036D835F8190001F0F3FF824530D1B14655
:102D8800E3E74846C5E62378DDF804A0029E5C0622
:102D98004946DDF80C9003D510B135F8113013BB56
:102DA80009F1FF395FFA89F9CDF804A0C6E6204693
:102DB800FFF716F90128ABD9431C3FF4A9AE3468D4
:102DC80063699842BFF4C0AE023B821E9A42F0602B
:102DD8003BBFA778A36A002702FB0737376144E7A0
:102DE800DDF804A0029ECDF804A04FF0FF09A5E687
:102DF800807700082DE9F04F8569C6696968AA6877
:102E080089B00446286805AB07C39DF81F70FB0707
:102E180040F184820023EB724FF00108E3614FF028
:102E280020099DF815109DF816209DF817309DF87B
:102E380014009DF818B09DF819A09DF81AC09DF8C7
:102E48001BE06970AA709DF81C109DF81D20EB709E
:102E5800B8F1050F9DF81E30287085F804B085F884
:102E680005A085F806C085F807E029726A72AB727A
:102E780040F22682B11E4346D9E002F0010E0EEB65
:102E8800430313F4803F18BF83F488334FEA520298
:102E980002F0010E18BF83F021030EEB430313F475
:102EA800803F18BF83F488334FEA520218BF83F07B
:102EB800210302F0010E0EEB430E1EF4803F18BFF3
:102EC8008EF4883E4FEA520202F0010318BF8EF0DA
:102ED800210E03EB4E0E1EF4803F18BF8EF4883E81
:102EE8004FEA520202F0010318BF8EF0210E03EBE5
:102EF8004E0E1EF4803F18BF8EF4883E4FEA5202F1
:102F080002F0010318BF8EF0210E03EB4E0E1EF4E3
:102F1800803F18BF8EF4883E4FEA520202F0010348
:102F280018BF8EF0210E03EB4E0E1EF4803F18BF23
:102F38008EF4883E4FEA520202F0010318BF8EF069
:102F4800210E03EB4E0E1EF4803F18BF8EF4883E10
:102F58004FEA520202F0010318BF8EF0210E03EB74
:102F68004E0E1EF4803F18BF8EF4883E4FEA520280
:102F780002F0010318BF8EF0210E03EB4E0E1EF473
:102F8800803F18BF8EF4883E4FEA520202F00103D8
:102F980018BF8EF0210E03EB4E0E1EF4803F18BFB3
:102FA8008EF4883E4FEA520202F0010318BF8EF0F9
:102FB800210E03EB4E0E1EF4803F18BF8EF4883EA0
:102FC8004FEA520202F0010318BF8EF0210E03EB04
:102FD8004E0E1EF4803F18BF8EF4883E4FEA520210
:102FE80002F0010318BF8EF0210E03EB4E0E1EF403
:102FF800803F18BF8EF4883E4FEA520218BF8EF009
:10300800210E02F0010303EB4E0313F4803F18BFB7
:1030180083F488334FEA520218BF83F0210302EB8E
:103028004303DA0344BF83F4883383F0210331F880
:10303800022F002A7FF421AF03F00F0101F13002C3
:10304800392A88BF01F137021B098DF8132000F0D7
:10305800BA8003F00F0101F13002392A88BF01F16B
:1030680037021B098DF8122000F04C8103F00F0184
:1030780001F13002392A88BF01F137021B098DF8A6
:10308800112000F03C8103F00F0101F13002392AD0
:1030980088BF01F137021B098DF8102000F02C8140
:1030A80003F00F0101F13002392A88BF01F137021C
:1030B8001B098DF80F2000F01C8103F00F0101F1AE
:1030C8003002392A88BF01F137021B098DF80E201A
:1030D80000F0018103F00F0101F13002392A88BFA5
:1030E80001F137021B098DF80D2000F0ED80DBB2ED
:1030F80003F13002392A88BF03F1370220288DF8FE
:103108000C2000F002814FF0FF3C681C002106E013
:1031180092F800E0BEF1200F00F0D48019464B1C55
:103128006345024600F10100F2D30231EA18BCF10E
:10313800070F54D9072982F800902DD805EB010E06
:10314800981C08288EF8009026D0DA1C2918082A1E
:1031580081F8009020D0511CA818082980F8009008
:103168001AD0023205EB010E082A8EF8009013D00F
:10317800511C05EB020E08298EF800900CD0931C08
:103188006A18082B82F8009006D0E9182022062B2E
:103198000A7008BF85F8079000212046FFF756F807
:1031A800002840F0B6802046FFF792FC002840F047
:1031B800B08008F10108B8F1640F7FF432AE07203F
:1031C80009B0BDE8F08F7E2220288DF8122018BFA4
:1031D8004FF0060C99D12A4601214FF0060C7E20AB
:1031E800072910700CF10102D6D8082A03F1020051
:1031F80005EB010EA5D00DF1200E7244082812F837
:10320800142C6A540CF1020EC6D0BEF1080F03F15B
:10321800030205EB00019AD008A97144082A11F8A5
:10322800141C29540CF1030EB6D0BEF1080F03F19B
:10323800040105EB020090D008A8864408291EF86E
:1032480014EC05F802E00CF10400A5D0082803F1FD
:10325800050205EB010E87D00DF1200E8644082AE1
:103268001EF814EC05F801E00CF1050094D00828CC
:1032780003F1060105EB020E3FF47DAF0DF1200EC0
:10328800864408291EF814EC05F802E00CF1060043
:1032980082D0082803F1070305EB01023FF471AF60
:1032A80008AA1044082B10F8142C6A543FF474AF81
:1032B800E918BCF1000F40F0D8809DF8132066E7AC
:1032C8004346B9E6023132E77E228DF80C209C464F
:1032D8002A46012183E74FF0010C08AB63447E22A4
:1032E800202803F8142C7FF410AF2A46012100236C
:1032F80075E74FF0020CF0E74FF0030CEDE74FF0E5
:10330800040CEAE74FF0050CE7E72A460121002301
:1033180010E704287FF454AFEF72E661B80740F174
:1033280086803388002B00F08280002300E00B4663
:1033380036F8022F591C002AF9D1A14D1A33A5FBE2
:103348000335AD0829462046FFF7D2FA00287FF456
:1033580037AFE188013D491B2046FEF777FF00287B
:103368007FF42EAFA3691A7859789F78D60146EA78
:1033780052020A44C2F3460141EAC21257FA82F2E3
:10338800C2F34607DE78197947EAC21256FA82F67E
:10339800C6F3460242EAC61251FA82F6C6F346015D
:1033A8005A799F7941EAC61152FA81F2C2F346016D
:1033B80041EAC21257FA82F2C2F34606D9791F7A55
:1033C80046EAC21251FA82F1C1F3460242EAC11238
:1033D80057FA82F1C1F346025F7A9E7A42EAC11334
:1033E80057FA83F3C3F3460242EAC31356FA83F348
:1033F800DBB2824601932668D4F810B0F76A5F45BD
:1034080000F08580337906F13008002B40F0878181
:10341800414601235A467078FDF732F8002874D0E7
:103428004FF0FF33F362012009B0BDE8F08F0121AE
:103438002046FFF75DFA00287FF4C2AE2568D4F86D
:103448001090EE6A4E4514D02B7905F13007002B09
:1034580039D1394601234A466878FDF711F830B169
:103468004FF0FF33EB620120AAE620228FE6C5F871
:103478002C9020220021606903F0F7FD6369A2699E
:10348800181D111D8B4238BF8242C0F06C8142EA80
:103498000301890740F06781116819605168596014
:1034A800117A1972517A5972927A9A72A369626979
:1034B800DB7A03F0180313732368012200201A71C2
:1034C80009B0BDE8F08F3946012332466878FCF729
:1034D800EFFF0028A7D12A6AAB692871B21A9A426D
:1034E800B7D295F80380B8F1010F01D8B1E7AB69FD
:1034F80068781E4408F1FF38324601233946FCF744
:10350800D7FFB8F1010FF2D1A3E7C6F82CB0E8B2A3
:10351800421E6369E6699DF804705F7302EB42011D
:1035280002EB81024FF00F01D97283F80CA083F8E7
:103538001AA083F81BA036F81210597001F1FF3E4B
:103548000F0A1FFA8EFE4FF6FD718E459F704FEAE7
:10355800420737D9FF22DA701A71FF225A719A711D
:10356800FF22DA711A72FF225A729A72FF229A7334
:10357800DA73FF221A745A74FF229A74DA74FF22DB
:103588001A755A75FF229A75DA75FF221A765A76D5
:10359800FF221A775A77FF229A77DA7740F04000AD
:1035A800187023684FF0010220461A71FFF75CF982
:1035B80000287FF405AE013D7FF41DAF3EE700BF54
:1035C8004FECC44E01324FEA420836F812E083F855
:1035D80003E00EF1FF3C1FFA8CFC4FEA1E2E8C45CF
:1035E80083F804E0B9D806EB0802B2F802E083F8E1
:1035F80005E00EF1FF3C1FFA8CFC4FEA1E2E8C45AD
:1036080083F806E0ACD8B2F804E083F807E00EF1DE
:10361800FF3C1FFA8CFC4FEA1E2E8C4583F808E00D
:10362800A1D8B2F806E083F809E00EF1FF3C1FFAD2
:103638008CFC4FEA1E2E8C4583F80AE096D8B2F827
:1036480008E083F80EE00EF1FF3C1FFA8CFC4FEA0D
:103658001E2E8C4583F80FE08BD8B2F80AE083F869
:1036680010E00EF1FF3C1FFA8CFC4FEA1E2E8C4531
:1036780083F811E080D8B2F80CE083F812E00EF17C
:10368800FF3C1FFA8CFC4FEA1E2E8C4583F813E092
:103698003FF675AFB2F80EE083F814E00EF1FF3C88
:1036A8001FFA8CFC4FEA1E2E8C4583F815E03FF676
:1036B80069AFB2F810E083F816E00EF1FF3C1FFA8C
:1036C8008CFC4FEA1E2E8C4583F817E03FF65DAF61
:1036D800518A197601F1FF3C1FFA8CFC4FF6FD7EEA
:1036E800090AF44559763FF653AF918A197701F1E3
:1036F800FF3C1FFA8CFC090AF44559773FF64BAF9B
:10370800D28A9A77511E89B2120A7145DA773FF642
:1037180045AF3E44728B002A3FF440AF40E7414634
:1037280001233A467078FCF7C3FE00287FF47BAE8D
:10373800326AB3693071BA1A9A42BFF469AE96F820
:103748000390B9F1010F01D862E6B36970781F449C
:1037580009F1FF393A4601234146FCF7A9FEB9F1C0
:10376800010FF2D154E61178197051785970917897
:103778009970D178D97011791971517959719179F4
:103788009971D179D9718BE62DE9F04F0B782F2BF0
:1037980083B00C46064600F03D815C2B00F03A8170
:1037A8000025B56023781F2B40F23B812346254630
:1037B80013F8010B2F2801D05C2801D11C46F5E72E
:1037C80080B21F28F76940F2F9802F282FD05C2893
:1037D8002DD00121A7F1020A4FF0010901F09CFA4E
:1037E80008B37F2809D822281DD09F4A01E09842B3
:1037F80019D012F8013F002BF9D12AF8020F14F85A
:10380800010F1F2809F1010340F2DB802F2811D096
:103818005C280FD0B3F5807F05D00121994601F0CF
:103828007BFA0028DDD1062003B0BDE8F08F4FF009
:1038380000090123EC184FF0000AB9F1000FF2D08B
:1038480007EB490232F8023D202B01D02E2B03D181
:10385800B9F10109F6D1E6E7B3692022002527F876
:1038680019501A705A709A70DA701A715A719A71DE
:10387800DA711A725A729A7207EB4902BB1E00E09B
:10388800013533F8020F2028FAD02E28F8D00DB1D0
:103898004AF0030A134633F8022D2E2A02D0B9F152
:1038A8000109F8D100239B464FF00808013590B371
:1038B800202820D02E281CD0434523D24D4500F087
:1038C80084807F2800F28D802B2800F09980674A39
:1038D80002E0814200F0948012F8011F0029F8D11B
:1038E800A0F14101192900F2B4804BF0020BC0B2DB
:1038F80089E04D4504D04AF0030A37F81500D5E7AA
:10390800434562D3B8F10B0F00F093804D455FD06B
:103918004AF0030A5CD9B3691978E52900F0928066
:10392800B8F1080F04BF4FEA8B0B5FFA8BFB0BF063
:103938000C020C2A6BD00BF00301032967D01AF094
:10394800020F0AD10BF0030BBBF1010F08BF4AF0BD
:10395800100A042A08BF4AF0080A83F80BA00021BD
:103968003046FEF773FCB0B93046FFF7B1F8B369DB
:10397800DB7A90B959073FF557AF7369DA7AD206FF
:1039880011D53268D87E11789A7E032942EA00223E
:103998000DD0B2600AE7B369DB7A04287FF444AF3C
:1039A8005C073FF541AF052003B0BDE8F08F597DB6
:1039B8001B7D43EA012342EA0342EAE74FF000098C
:1039C8000123EC184FF0040A37E7B8F10B0F30D099
:1039D8004FEA8B0B5FFA8BFB4D464FF00B08082321
:1039E8008BE70021019301F097F9019B70B3204AFE
:1039F80010444AF0020A10F8800C00287FF464AFE3
:103A08004AF0030A5F20B169C854013375E74AF0E8
:103A1800020A94E701340025B56023781F2B3FF68E
:103A2800C5AE29463046FEF711FC756103B0BDE806
:103A3800F08FB3691A78E52A4AF0030A7FF477AF62
:103A48004FF00B0805211970B36969E74AF0020ABB
:103A5800D6E7A0F16101192997BF2038C0B2C0B2DA
:103A68004BF0010BCFE700BFE4760008F0760008C2
:103A7800647600082DE9F04F076983B0FF230646F6
:103A880001938B469A460420002F44D03468E56A97
:103A9800BD4215D0237904F13009002B41D14946A4
:103AA80001233A466078FCF7EBFC40B14FF0FF3356
:103AB800E36201200023336103B0BDE8F08FE762C1
:103AC80072691378ABB1E52B0DD02E2B0BD0D17AC0
:103AD80001F03F0121F02000A0F10800B0FA80F0C9
:103AE800400958453FD04FF0FF0AF4880134A3B28B
:103AF8000BB90420DEE73769002FFAD014F00F0560
:103B080000F0DD803368F480303303EB45137361D4
:103B18000020002FBAD10028CCD1002003B0BDE886
:103B2800F08F494601232A466078FCF7C1FC00283B
:103B3800BFD1226AA3692071AA1A9A42AFD294F817
:103B48000380B8F1010F01D8A9E7A36960781D4483
:103B580008F1FF382A4601234946FCF7A9FCB8F1C9
:103B6800010FF2D19BE70F2940F06181590640F11E
:103B7800A280507BF1880190318403F0BF03547B0D
:103B880001998C42AFD1117895785078D6F81CE01D
:103B980001F03F01013901EB410701EB8701FE29E3
:103BA80040EA052500F23F812EF81150D0781779A8
:103BB80040EA0727481C002D40F099804FF6FF7116
:103BC8008F4240F0308192F80680517941EA082806
:103BD8004FF6FF71884540F0268192F808C0D179E8
:103BE80041EA0C2C4FF6FF718C4540F01C81977A06
:103BF800517A41EA07274FF6FF718F4240F013814F
:103C080092F80FC0917B41EA0C2C4FF6FF718C455E
:103C180040F00981577C117C41EA07274FF6FF7174
:103C28008F4240F0008192F813C0917C41EA0C2C3D
:103C38004FF6FF718C4540F0F680577D117D41EAC3
:103C480007274FF6FF718F4240F0ED8092F817C0BA
:103C5800917D41EA0C2C4FF6FF718C4540F0E380D2
:103C6800577E117E41EA07274FF6FF718F4240F0D9
:103C7800DA8092F81DC0117F41EA0C2C4FF6FF71D3
:103C88008C4540F0D080D77F917F41EA07274FF6D7
:103C9800FF718F4240F0C7801278520606D5FF2880
:103CA80000F0C1804FF000022EF81020013B5FFAAF
:103CB80083FA019419E79A457FF415AF5FE7F16835
:103CC80033680137376121B91A899442BFF411AFBB
:103CD80019E79A78013A12EA14127FF414AF01290D
:103CE80003D95A699142C0F0F2800220E2E6FF2827
:103CF80000F099802EF8107092F8068092F805C0AE
:103D080045004CEA0828881C002F3FF461AFFF28C3
:103D180000F089807544C81CA5F8028092F808C094
:103D2800D77947EA0C2CB8F1000F3FF45BAFFF28B6
:103D380079D0A5F804C0507A977A40EA0727081D79
:103D4800BCF1000F3FF457AFFF286CD0EF80907B99
:103D580092F80FC040EA0C2C481D002F3FF455AFD5
:103D6800FF2860D0A5F808C0107C577C40EA0727D8
:103D7800881DBCF1000F3FF451AFFF2853D06F816D
:103D8800907C92F813C040EA0C2CC81D002F3FF419
:103D98004FAFFF2847D0A5F80CC0107D577D40EAEB
:103DA800072701F10800BCF1000F3FF44AAFFF28D4
:103DB80039D0EF81907D92F817C040EA0C2C01F1C0
:103DC8000900002F3FF447AFFF282CD0A5F810C0FA
:103DD800107E577E40EA072701F10A00BCF1000F68
:103DE8003FF442AFFF281ED06F82107F92F81DC0AB
:103DF80040EA0C2C01F10B00002F3FF43FAFFF28E5
:103E080011D0A5F814C0907FD77F40EA072701F1A9
:103E18000C00BCF1000F3FF43AAFFF2803D001F1CA
:103E28000D00EF8238E701944FF0FF0A5DE6BAF122
:103E3800000F48D155789178D478D80140EA5303D7
:103E48002B44C3F3460040EAC31351FA83F1C1F38C
:103E5800460343EAC11354FA83F7C7F346041379B8
:103E68005179907944EAC71453FA84F3C3F34604AA
:103E780044EAC31351FA83F1C1F3460343EAC11379
:103E880050FA83F5C5F34600D779117A537A947AB4
:103E980040EAC51057FA80F2C2F3460040EAC2125F
:103EA80051FA82F1C1F3460242EAC11253FA82F38F
:103EB800C3F3460242EAC31354FA83F3019ADBB20E
:103EC8009A423FF42AAE4FF6FF73338425E618462C
:103ED800FEF786F801287FF608AF431C3FF4E9ADEA
:103EE80033685A699042BFF404AE023A811E914287
:103EF800F0603BBF9F789A6A002701FB072737616C
:103F080001E600BF10B584B004AB019043F8041D6E
:103F1800184600911446FDF7E5F9031E0FDB0F491B
:103F280051F823200AB100201070019A8AB10020AC
:103F3800012C41F82320107004D004B010BD0B20D0
:103F480004B010BD0246694601A8FDF7EFFA04B0B7
:103F580010BD41F823201046EFE700BF2C020020D7
:103F68002DE9F04790B00191002849D00023036063
:103F7800054601A816460693FDF7B4F9071E3BDB74
:103F8800A94B53F82740002C4CD00694237806F010
:103F98001E08002B38D06078FCF766FAC10733D4C6
:103FA800B8F1000F01D0420743D44FF4007000F07D
:103FB800AFFE0746002833D002AB06A801990D973B
:103FC8000C93FFF7E1FB06F01F090446DDF82C808F
:103FD80088BBB8F1000F72D016F01C0F71D098F89A
:103FE8000B3013F0110F74D1760733D508243846F7
:103FF80000F090FE204600E00B2010B0BDE8F087EE
:10400800092010B0BDE8F0870023F8B22370607073
:10401800FCF71EFAC30707D5032010B0BDE8F087E8
:104028001120EAE70C20E8E7B8F1000F37D047077E
:1040380035D50A20E1E716F01C0FD8D0042CD6D1CC
:1040480006A8FEF7D7FE49F008090446DDF82C80DB
:104058000028CCD119F0080F5BD1069BDB6AEB6115
:104068003846C5F8208000F055FE0023069A85F8EA
:104078000690EB71117898F81B0098F81A3003290C
:1040880043EA00232DD02B61D8F81C30D188EB608F
:1040980000232A60A980AB60AB611846ADE7002217
:1040A8004FF0FF3704F130082271E76241460123DF
:1040B8006078FCF7E5F9E8B1E76201209DE706249E
:1040C80095E798F80B30DC0621D4B00703D5D9075B
:1040D80001D507248BE73207069BBFD549F0200995
:1040E800BCE798F8150098F8141041EA002143EA53
:1040F8000143C8E794F82F2294F82E32E06243EA8D
:1041080002234AF65522934243D00D2075E7042432
:104118006DE7FCF7F3F900220612010E040C069B6A
:1041280088F80F6088F8111088F80E0088F8104099
:1041380088F80B2088F81C2088F81D2088F81E2095
:1041480088F81F201A7898F81B6098F81A10032A24
:1041580041EA062614D00022012188F81A2088F89E
:104168001B2088F8142088F815201971002EB5D066
:104178008E4203D95A699642C0F06681022436E716
:1041880098F8151098F8142042EA012246EA0246E7
:10419800E1E7D4F86630254A23F07F43934200F0E4
:1041A8008581D4F8823023F07F43934200F07E81EA
:1041B80094F8F201002800F07B81D4F8F67194F8A5
:1041C80002320BB1D4F80632039394F812320BB1D1
:1041D800D4F81632049394F822320BB1D4F826326C
:1041E80005932FBB039F002F40F0D580049F002F1D
:1041F80040F0FE80059F002F87D04FF0FF39002345
:104208004F452371C4F82C9000F0358141460123B5
:104218003A466078FCF734F9002800F02B81C4F89E
:104228002C900120E9E600BF2C02002046415400F2
:104238004FF0FF3900234F452371C4F82C9013D059
:1042480001233A4641466078FCF71AF9002840F005
:10425800318194F82F2294F82E32E76243EA022340
:104268004AF655229342BDD1D4F86630CB4A23F0A2
:104278007F43934205D0D4F8823023F07F439342A2
:10428800B0D194F83C2094F83B3043EA0223B3F5CC
:10429800007F7FF43AAF94F8471094F8463094F8CA
:1042A8004000E07053EA012318BF194600F1FF33BC
:1042B80008BF616DA161012B3FF627AF94F83D302F
:1042C800A370002B3FF421AF5A1E1A427FF41DAF92
:1042D80094F8428094F8412042EA082818F00F0F19
:1042E800A4F808807FF411AF94F844E094F84320D0
:1042F80094F83FC052EA0E2294F83EE008BF226DBF
:104308005EEA0C2E3FF401AF01FB00F00EEB181C27
:10431800844494453FF6F9AECCEB0202B2FBF3F3CA
:10432800002B3FF4F2AE40F6F572934240F213814F
:104338004FF6F572934240F2F08002330EEB07001D
:104348000CEB070263612062A262E761B8F1000F1B
:104358007FF4DBAE9B0003F2FF13E26D6262B1EB08
:10436800532FFFF4D2AE94F8612094F8603043EAFA
:10437800022380214FF0FF32012B2261E26061713C
:1043880000F0A1800323864A2370138801339BB26F
:104398001380E38009E64FF0FF3900234F4523716E
:1043A800C4F82C9009D001233A4641466078FCF7BE
:1043B80067F8002840F08480E76294F82F2294F888
:1043C8002E3243EA02234AF6552293427FF40EAF77
:1043D800D4F86630714A23F07F4393423FF451AFDB
:1043E800D4F8823023F07F4393427FF4FFAE48E74E
:1043F8004FF0FF3900234F452371C4F82C9008D0A3
:1044080001233A4641466078FCF73AF8002854D12F
:10441800E76294F82F2294F82E3243EA02234AF6F0
:10442800552293427FF4E6AED4F866305B4A23F017
:104438007F4393423FF425AFD4F8823023F07F4383
:1044480093427FF4D7AE1CE731461846D3F82CA028
:10445800FDF77AFC044600287FF4C9AD0698013EB2
:104468005146C660FDF724F8044600287FF4BFAD26
:10447800069B33E6E76294F82F1294F82E324AF638
:10448800552243EA012393427FF43FAED4F86630C5
:10449800424A23F07F4393423FF4F3AED4F882308C
:1044A80023F07F4393427FF430AEEAE60746E8E61E
:1044B800074684E6C4F82C9094E6C4F82C9099E654
:1044C800C4F82C9092E6791C2046FCF7F1FF0028EE
:1044D8007FF458AF94F82F2294F82E3284F8058090
:1044E80043EA02234AF6552293427FF44BAF2D4B01
:1044F800226B9A427FF446AF03F1FF5303F5005352
:10450800D4F8142220339A427FF43CAFD4F818220E
:10451800D4F81C322261E36034E702330EEB070261
:10452800BC4463612262C4F828C0E761B8F1000F97
:104538003FF4EBAD5B0003F2FF130244B1EB532FE2
:104548006262FFF4E2AD4FF0FF3380222361E36043
:104558006271022317E702330EEB0702BC44636162
:104568002262C4F828C0E761B8F1000F3FF4CDAD6E
:1045780003F0010707F2FF1703EB430307EB5303AD
:104588000244B1EB532F6262FFF4BFAD4FF0FF332B
:1045980080222361E36062710123F4E646415400FE
:1045A800280200205252614170B5002484B01C607A
:1045B80018B105680DB12C7814B9092004B070BD84
:1045C800EE888488A642F8D104466878039202915E
:1045D8000193FBF749FF10F0010F019B0299039A21
:1045E80001D00320EAE7E0790028E7D1A079C007E5
:1045F80002D4072004B070BD204604B0BDE8704066
:10460800FEF706B840B12DE9F84303680BB11A78F4
:1046180022B90920BDE8F88309207047D988828823
:104628009142F6D104465878FBF71EFFC00702D521
:104638000320BDE8F883A3799A0625D559060CD539
:104648002368A269587804F124010123FBF730FF9D
:10465800B8B9A37923F04003A3712568E769EE6A26
:10466800B74225D02B7905F13009002B50D14946A6
:1046780001233A466878FBF703FFC0B14FF0FF33D8
:10468800EB620120BDE8F8832368002BC1D01A78BB
:10469800002ABED0D988A2889142BAD15878FBF7AF
:1046A800E3FE10F00100C3D12060BDE8F883EF629B
:1046B800256AEB7A43F02003EB72E3682B77E36813
:1046C8001B126B77E389AB77E37BEB772369AB76D8
:1046D8001A0C11121B12EB762A756975FBF70EFF7F
:1046E8000023010C020E06122976A875EE756A766B
:1046F800AB74EB74A379226823F020030121A37122
:1047080011712068FDF744F90028BDD0BDE8F88391
:104718004946012332466878FBF7CAFE0028B0D123
:104728002A6AAB692871B21A9A42A0D295F8038016
:10473800B8F1010F01D89AE7AB6968781E4408F10F
:10474800FF38324601234946FBF7B2FEB8F1010FA4
:10475800F2D18CE72DE9F04186B00191002846D0CE
:10476800054601A8FCF7BEFD041E39DB7F4B53F854
:104778002460002E4AD03378002B3CD07078FBF7A9
:1047880073FEC10737D42E604FF4007000F0C0FAF2
:10479800074600283CD002ABEF61AB61019928467F
:1047A800FEF7F2FF0446384600F0B4FA002C4AD16E
:1047B8006B6953B1DA7AD20647D53178D87E9A7EBA
:1047C800032942EA002245D0AA60F388AB80002181
:1047D8002846FDF73BFD0428044636D020B100E00A
:1047E8000B24002320462B6006B0BDE8F081092089
:1047F80006B0BDE8F081E0B2002370703370FBF7BB
:1048080027FE10F0010205D00324EAE70C24E8E7AC
:104818001120E9E74FF0FF3406F130073271F462F6
:10482800394601237078FBF72BFE80B996F82F22C2
:1048380096F82E32F06243EA02234AF65522934252
:104848000FD00D24CDE7042CCBD10524C9E7F462A1
:104858000124C6E7597D1B7D43EA012342EA03424E
:10486800B2E7D6F86630424A23F07F43934200F01D
:104878008180D6F8823023F07F4393427AD096F82D
:10488800F201002800F03581D6F8F64196F8023298
:104898000BB1D6F80632039396F812320BB1D6F85C
:1048A8001632049396F822320BB1D6F826320593C5
:1048B800ECB9039C84BB049C002C42D1059C002CC1
:1048C800BFD04FF0FF38002344453371C6F82C8021
:1048D80000F012813946012322467078FBF7D0FD9B
:1048E800002800F00881C6F82C80012479E74FF0F1
:1048F800FF38002344453371C6F82C8000F023812B
:104908000123224639467078FBF7BAFD002800F0EB
:104918000E81C6F82C80CCE74FF0FF3800234445C1
:104928003371C6F82C8000F0AD8001232246394649
:104938007078FBF7A5FD002800F0A380C6F82C804E
:10494800B9E74FF0FF38002344453371C6F82C808F
:1049580000F0B4800123224639467078FBF790FDB9
:10496800002800F0AA80C6F82C80A7E72C020020B7
:1049780046415400044696F83C2096F83B3043EAFA
:104988000223B3F5007F7FF45CAF96F8471096F8E2
:10499800463096F84000F07053EA012318BF1946D4
:1049A80000F1FF3308BF716DB161012B3FF649AFCC
:1049B80096F83D30B370002B3FF443AF5A1E1A42AD
:1049C8007FF43FAF96F8412096F8427042EA0727F5
:1049D8003A0737817FF435AF96F844E096F84320DC
:1049E80096F83FC052EA0E2296F83EE008BF326DB4
:1049F8005EEA0C2E3FF425AF01FB00F00EEB171C0E
:104A0800844494453FF61DAFCCEB0202B2FBF3F3AE
:104A1800002B3FF416AF40F6F572934240F2E9805E
:104A28004FF6F572934240F2C78002330EEB040052
:104A38000CEB040273613062B262F461002F7FF400
:104A480000AF9B0003F2FF13F26D7262B1EB532FBC
:104A5800FFF4F7AE96F8611096F8603043EA012348
:104A68004FF0FF328021012B3261F26071717AD0F0
:104A78000323714A3370138801339BB21380F38088
:104A880081E6F46296F82F1296F82E324AF65522ED
:104A980043EA012393427FF40EAFD6F86630674AA3
:104AA80023F07F4393423FF466AFD6F8823023F079
:104AB8007F4393427FF4FFAE5DE7F46296F82F12CE
:104AC80096F82E324AF6552243EA012393427FF4A0
:104AD800F5AED6F86630594A23F07F4393423FF447
:104AE8004AAFD6F8823023F07F4393427FF4E6AE94
:104AF80041E70446CAE6F46296F82F1296F82E3279
:104B08004AF6552243EA012393427FF49AAED6F837
:104B180066304A4A23F07F4393423FF42CAFD6F8DD
:104B2800823023F07F4393427FF48BAE23E796F8DD
:104B38002F2296F82E32F46243EA02234AF65522CF
:104B480093427FF4B6AED6F866303C4A23F07F43F2
:104B580093423FF410AFD6F8823023F07F4393425C
:104B68007FF4A7AE07E7611C3046FCF7A1FC0028DC
:104B78007FF47EAF96F82F2296F82E32777143EAAB
:104B880002234AF6552293427FF472AF2C4B326BC4
:104B98009A427FF46DAF03F1FF5303F50053D6F843
:104BA800142220339A427FF463AFD6F81822D6F83D
:104BB8001C323261F3605BE702330EEB0402A4445B
:104BC80073613262C6F828C0F461002F3FF439AE31
:104BD8005B0003F2FF130244B1EB532F7262FFF440
:104BE80030AE4FF0FF3380223361F36072710223DD
:104BF8003FE702330EEB0402A44473613262C6F845
:104C080028C0F461002F3FF41CAE03F0010404F245
:104C1800FF1403EB430304EB53030244B1EB532F9C
:104C28007262FFF40EAE4FF0FF3380223361F360FF
:104C3800727101231DE700BF28020020464154007D
:104C48005252614118B103680BB11A780AB90920A8
:104C58007047D98882889142F9D110B504465878AE
:104C6800FBF702FC10F0010001D0032010BD20600A
:104C780010BD00BF18B103680BB11A780AB9092032
:104C880070472DE9F0418288DC88944284B018BFCF
:104C9800092002D004B0BDE8F081054658780E46D8
:104CA800FBF7E2FB10F0010801D00320F2E74EB356
:104CB8004FF4007000F02CF8074688B101ABE861AA
:104CC800AB6141462846FEF7D5FE0428044609D0C4
:104CD80050B1384600F01EF8204604B0BDE8F08117
:104CE8001120D7E7C5F8108031462846FCF746FB67
:104CF8002846FDF7B9FD04280446EAD100202861BA
:104D08000446E6E731462846FDF7A0FAC2E700BFA9
:104D180002F08CB902F092B97F2811D989B910B480
:104D28000D4B01E0802915D033F8022F82428CB256
:104D380001F10101F6D104F1800080B25DF8044B65
:104D48007047FF2804D8054B803833F810007047A7
:104D5800002070470020F1E76E790008707900089C
:104D680061280ED00849002201E0834205D031F8BD
:104D7800023F0132002BF8D17047044B33F8120080
:104D880070474120F8E700BF90770008707A000864
:104D98002DE9F04F87B000929DF840809DF844B00F
:104DA80011B907B0BDE8F08F00F13F4C464D0CF546
:104DB8007E0C4FEA9C2C2A6B4FF001091FFA8CF4E9
:104DC80009FA04F41443009A2C63013A4A452CD991
:104DD800DFF8F8B05FFA8CFC00244FF0030A630098
:104DE80041FA04F60AFA03F216F0010F09FA04FE72
:104DF8006FEA020208FA03F504F1010410D0C7684B
:104E08003BF81C6017403D43C5600568009F2A4079
:104E180007FA03F34EEA060613432BF81C600360F7
:104E2800102CDCD107B0BDE8F08F5FFA8CF201924C
:104E3800CDF8089000254FF0030A03910493CDF8AC
:104E480014B0009E049B6A0006FA02F7029E06FA56
:104E580005F903FA05F6039B43FA05FC0AFA02F47E
:104E68001CF0010F6FEA040408FA02FEB6B205F15D
:104E7800010523D0D0F80CB01449019B04EA0B0BB0
:104E88004BEA0E0EC0F80CE0D0F800E031F813C081
:104E980005990EEA040E4EEA07070760476827EAF5
:104EA80009073E434660866801FA02F20749344022
:104EB80049EA0C0C224321F813C08260102DC0D19E
:104EC80007B0BDE8F08F00BF003802405002002054
:104ED8002DE9F04F87B09DF8404005949DF8444077
:104EE800002900F0858000F13F4505F57E05DFF8D3
:104EF80038E2AF0ADEF830601FFA87FC012505FAB0
:104F08000CF53543CEF83050CD0700F102818E07FD
:104F180000F1F5804D0700F1E8800E0700F1DB8015
:104F2800CD0600F1CE808E0600F1C1804D0600F15D
:104F3800B4800E0600F1A780CD0500F19B808E0598
:104F480000F18E804D0500F181800E0575D4CD04E9
:104F58006AD48E045FD44D0454D4CD0B4BD1FCB22B
:104F6800049400264FF0010B4FF0020A01910292BF
:104F780003937100032303FA01F4039B03FA01FE70
:104F8800029B03FA06F5019B43FA06F818F0010F95
:104F98000BFA06FC6FEA04040AFA01F7ADB206F14F
:104FA800010623D0D0F80C905E4A049B04EA090954
:104FB80049EA0E0EC0F80CE0D0F800E032F8138091
:104FC800059A0EEA040E4EEA07070760476827EAC3
:104FD8000C073D434560856802FA01F1514A2C40AF
:104FE8004CEA080C214322F813C08160102EC0D16E
:104FF80007B0BDE8F08F456A25F0704545EA0474AE
:105008004462ACE7456A25F0706545EA0465456287
:10501800CD0BA4D0EFE7456A25F4700545EA0455A1
:1050280045624D0499D5EDE7456A25F4702545EAB2
:1050380004458E0445628ED5EDE7456A25F4704532
:1050480045EA04354562CD0483D5EDE7456A25F484
:10505800706545EA04250E0545627FF578AFECE7F3
:10506800456A25F0F00545EA041545624D057FF5CA
:105078006CAFEBE7456A25F00F0525438E054562C1
:105088007FF560AFECE7056A25F0704545EA0475E1
:105098000562CD057FF553AFECE7056A25F070652D
:1050A80045EA04650E0605627FF546AFEBE7056A3B
:1050B80025F4700545EA045505624D067FF539AFBC
:1050C800EBE7056A25F4702545EA04458E06056276
:1050D8007FF52CAFEBE7056A25F4704545EA043502
:1050E8000562CD067FF51FAFEBE7056A25F470650D
:1050F80045EA04250E0705627FF512AFEBE7056A5E
:1051080025F0F00545EA041505624D077FF505AF62
:10511800EBE7056A25F00F0525438E0705627FF545
:10512800F9AEECE7500200200038024003885B0625
:1051380013D503899B07FCD003891B06F9D462B1F8
:105148000A4411F8013B838103899B07FCD003893A
:105158001B06F9D491428389F3D1704710B40488AF
:10516800640614D50489A407FCD004892406F9D45C
:105178006BB1CC1892B2828103899B07FCD003895A
:105188001B06F9D4838901F8013BA142F3D15DF8EC
:10519800044B7047704700BF2DE9F04F89B00446B3
:1051A80003A899460E461546BDF84870BDF84C80D0
:1051B800FBF7C2F8A04B9C424BD0A04B9C425CD062
:1051C8009F4B9C4271D09F4B9C427FD09E4B9C42F0
:1051D80000F091809D4B9C4200F0AB8000234FF47F
:1051E8000072ADF81890ADF81A80ADF80E70ADF8F1
:1051F8000C30ADF81620EDB1012D20D0022D23D0B2
:10520800032D05D102220123ADF81220ADF8143088
:10521800238823F040031B041B0C238003A920468A
:10522800FBF76AF823889BB243F04003238009B058
:10523800BDE8F08FADF81250ADF81450E8E7ADF8BE
:105248001230ADF81450E3E7ADF81250ADF8143051
:10525800DEE77F4A536C43F480535364002E7FD0BB
:10526800012E18D105210322002301910092382133
:105278001A467848FFF72CFE13E0754A136C43F47E
:1052880080431364002E00F09980012E00F0BD8049
:10529800022E00F0C680032E03D105212046FFF719
:1052A80079FF0023ADF8103094E7694A136C43F492
:1052B80000431364002E48D0012E00F09A80032E7C
:1052C8003FD106212046FFF765FF3AE0604A536C5C
:1052D80043F400535364002E65D0012E2FD10521CD
:1052E80003220023019100924FF4E0411A465A48E4
:1052F800FFF7EEFD25E0564A536C43F480135364E0
:10530800002E44D0012E1AD14FF0050A032600239F
:105318001A468DE840044FF400615048FFF7D8FD65
:1053280000238DE840041A46C0214D48FFF7D0FD00
:1053380007E0474A536C43F400135364DEB1032E6D
:1053480052D00023ADF8103048E7032206238DE839
:105358000C003821334632463E48FFF7B9FDF0E7E6
:10536800032205238DE80C00E021334632463D48F0
:10537800FFF7AEFD95E7032205238DE80C004FF4F7
:10538800E041334632463848FFF7A2FDD9E7032209
:1053980005238DE80C004FF46071334632462F48E0
:1053A800FFF796FDCDE7032205238DE80C00642165
:1053B800334632462848FFF78BFDC2E74FF0030A11
:1053C8004FF0050B334632468DE8000C4FF48061F0
:1053D8002048FFF77DFD8DE8000C334632460C214E
:1053E8002248FFF775FD5CE705212046FFF7D2FE4E
:1053F800A7E7062103220023019100924FF4E05110
:105408001A461A48FFF764FD9BE70521032200238B
:10541800019100924FF460411A460E48FFF758FD7B
:105428003FE7052103220023019100920D211A462E
:105438000F48FFF74DFD34E70030014000380040C9
:10544800003C00400034014000500140005401403D
:1054580000380240000402400010024000140240DC
:10546800001C0240000002400018024000080240F0
:1054780000200240F0B5874B984289B004460D469B
:105488003DD0854B984269D0844B98426FD0844B6D
:10549800984200F08780834B984200F09D80824BB1
:1054A8009C4201D009B0F0BD03AE3046FAF744FF84
:1054B8007E4A536C43F400135364002D00F0B68009
:1054C800032D00F0BF80784C4FF0827000214FF020
:1054D800007220230390049105920693238823F0F9
:1054E80040031B041B0C238031462046FAF704FFB7
:1054F80023889BB243F04003238009B0F0BD03AE7C
:105508003046FAF719FF694A536C43F480535364E1
:10551800002D6AD0012D00F0A680032D03D10521AE
:105528002046FFF737FE5B4F4FF0827000214FF0A7
:105538000072202303900491059206933B8823F080
:1055480040031B041B0C3B8031463846FAF7D4FE57
:105558003B889BB243F040033B80A0E700224FF416
:105568008273009301922023FFF716FE97E703AE9C
:105578003046FAF7E1FE4D4A136C43F400431364D6
:10558800002D3DD0012D79D0032D03D120460621D1
:10559800FFF700FE4FF0827000214FF000722023C9
:1055A8003E4C97E703AE3046FAF7C6FE3F4A536CC7
:1055B80043F40053536475B3012D48D0032D03D130
:1055C80020460521FFF7E6FD4FF0827000214FF0DD
:1055D80000722023324C7DE700224FF4827300933F
:1055E80001922023FFF7D8FD5CE7032205238DE80D
:1055F8000C00E0212B462A462D48FFF769FC92E76C
:10560800032206238DE80C0038212B462A46294818
:10561800FFF75EFCBEE7032205238DE80C0064213A
:105628002B462A462448FFF753FCCDE703220523DF
:105638008DE80C004FF4E0412B462A461F48FFF73F
:1056480047FC40E720460521FFF7A4FD3BE705217D
:1056580003220023019100924FF4E0411A461648B4
:10566800FFF736FCB0E705210322002301910092E1
:1056780038211A460F48FFF72BFC54E7062103226E
:105688000023019100924FF4E0511A460C48FFF7AD
:105698001FFC7FE70030014000380040003C00401C
:1056A80000340140005001400054014000380240DD
:1056B80000000240000402400010024000180240AE
:1056C8000008024003782BB10B7843B10E310E303D
:1056D80001F002BF0B78002BF8D0012070474FF083
:1056E800FF307047023900291BDDF0B4002423463F
:1056F800177802E001338B4210DAC55CBD4200EB3B
:105708000306F7D176785578AE42F3D10134012CEF
:1057180003F10203EEDD0120F0BC70470020F0BC6D
:1057280070470020704700BF04390029F0B54FF0DA
:1057380000061EDD344692F800C001E08C4218DAFB
:10574800075D674500EB04050FD195F801E0577830
:10575800BE450AD195F802E09778BE4505D1EF78A5
:10576800D578AF4201D1013604349E4204F10104D8
:10577800E4DBB342CCBF00200120F0BDF0B51B4FE5
:1057880087B00646BA683868FB680D46796801AC88
:105798000FC438692060053E01AA0DF1180E002ECD
:1057A8001DDD17782B46002113F8010B874201F104
:1057B800010112D11C78507884420ED15C7890781F
:1057C80084420AD19C78D078844206D1DC7810795A
:1057D800844202D1012007B0F0BDB142E4DB0532BA
:1057E8007245DCD1002007B0F0BD00BFCC750008C1
:1057F800F0B5174F87B005460E4638687968BA681D
:10580800FB686C460FC479693869033D03C40DF120
:10581800180E6946002D15DD0F783346002213F85F
:10582800010B874202F101020AD11C7848788442B0
:1058380006D15C788878844202D1012007B0F0BD97
:105848009542ECDC03318E45E4D1002007B0F0BD71
:10585800E07500082DE9F043334B87B084460A46CB
:10586800186859681C7A03AB03C303AF1C70ACF10A
:10587800030E3C460DF11509BEF1000F1DDD002099
:10588800034694F8008002E00133734515DAD55CCD
:10589800454502EB0301F7D14E786578AE42F3D166
:1058A8008D78A1788D42EFD10130012803F10303EF
:1058B800EADD012007B0BDE8F0830334A145DBD160
:1058C8001A4B1868596801AB03C3ACF1040C01A862
:1058D800BCF1000F20DD0024234690F800E002E030
:1058E80001339C4518DDD55C754502EB0301F7D102
:1058F8004E784578AE42F3D18E788578AE42EFD1B6
:10590800CD78C1788D42EBD10134012C03F1040329
:10591800CFDC01339C45E6DC04308742D8D1002037
:1059280007B0BDE8F08300BFF875000804760008EA
:10593800F0B5154B85B005469A6818680E46596843
:1059480001AB07C3033D01A90DF1100E002D15DDB4
:105958000F783346002213F8010B874202F1010247
:105968000AD11C784878844206D15C7888788442C9
:1059780002D1012005B0F0BD9542ECDC03318E4523
:10598800E4D1002005B0F0BD147600082DE9F041FF
:105998000546ADF5107D0F4607A829460122FEF7FA
:1059A800DFFA50B100240122B2490020FEF7AAFA1A
:1059B80020460DF5107DBDE8F081AF4E0446314616
:1059C8006B464FF4803207A8FEF7EEFD002836D16B
:1059D800DDF80080B8F5006F00F08280B8F5805FD0
:1059E80078D0B8F5005F00F09F80B8F5405F75D0BB
:1059F800B8F5804F27D0B8F5004F00F0CD80B8F546
:105A0800803F00F0F98004462E21284601F09DFDD4
:105A1800002861D085425FD0461C984D296819B985
:105A28000BE055F8081F41B1304601F055FD00283C
:105A3800F7D16B68002B18BF1C46C7F8008007A871
:105A4800FEF7E0FDAFE706F5804406F18000334637
:105A580002E0984200F0F38013F8012B93F87F10CE
:105A68009142F6D0864E30687168B268F36896F84D
:105A780014E001AC0FC4306984F804E0206001A987
:105A88000DF1190C43F6FE7E0E787B4B012213F8BC
:105A9800010BB04209D11C784878844205D15C7862
:105AA8008878844201D11324AEE701327245EED1E1
:105AB80003316145E8D1734B1868019001AA0123AD
:105AC8004FF480416C48FFF72FFE00280CBF0424D8
